:020000040800F2
:10000000080500209D0100085F1200087910000813
:100010005D12000885020008A11900080000000018
:100020000000000000000000000000008312000833
:1000300087020008000000008112000885120008F5
:10004000B7010008B7010008B7010008B7010008B0
:10005000B7010008B7010008B7010008B7010008A0
:10006000B7010008B7010008B7010008B701000890
:10007000B7010008B7010008B7010008B701000880
:10008000B7010008B7010008B7010008B701000870
:10009000B7010008B7010008B7010008B701000860
:1000A000B7010008B7010008B7010008B701000850
:1000B000B7010008B7010008B7010008B701000840
:1000C000B7010008B7010008B7010008B701000830
:1000D000B701000895190008B7010008B70100082A
:1000E000B7010008B7010008B7010008B701000810
:1000F000B7010008B7010008B7010008B701000800
:10010000B7010008B7010008B7010008B7010008EF
:10011000B7010008B7010008B7010008B7010008DF
:10012000B7010008B7010008B7010008B7010008CF
:10013000B7010008B7010008B7010008B7010008BF
:10014000B7010008B7010008B7010008B7010008AF
:10015000B7010008B7010008B7010008B70100089F
:10016000B7010008B7010008B7010008B70100088F
:10017000B7010008B7010008B7010008000000003F
:10018000B7010008B7010008DFF80CD000F068F8EC
:1001900000480047C51900080805002006488047A8
:1001A00006480047FEE7FEE7FEE7FEE7FEE7FEE75C
:1001B000FEE7FEE7FEE7FEE73513000889010008C9
:1001C0002DE9F05F0546002092469B46884606468C
:1001D000814640241BE0284641464746224600F01F
:1001E0002FF853465A46C01A914110D3114618466B
:1001F000224600F016F82D1A67EB01084F462246FA
:100200000120002100F00DF817EB00094E41201EDF
:10021000A4F10104DFDC484631462A464346BDE8E6
:10022000F09F202A04DB203A00FA02F100207047F8
:100230009140C2F1200320FA03F319439040704724
:10024000202A04DB203A21FA02F00021704721FA2B
:1002500002F3D040C2F12002914008431946704792
:10026000064C074D06E0E06840F0010394E8070003
:1002700098471034AC42F6D3FFF78AFFA81A00085B
:10028000C81A0008FEE7704790F83510022903D01D
:100290008021416501207047052180F835100068F4
:1002A000016821F0010101600020704770B504462B
:1002B00000F0ECF80546601C02D0044800780444C5
:1002C00000F0E4F8401BA042FAD370BD20000020EB
:1002D0002DE9F84FDFF87CB100224FF001084FF014
:1002E000030A4FF00F090BF1040E00BF0B6808FA68
:1002F00002F42340A3426ED14D68022D01D0122D8D
:100300000ED1D50800EB850CDCF820505607F70E0F
:1003100009FA07F6B5430E69BE402E43CCF82060BB
:10032000066855000F790AFA05FC07F0030726EA6C
:100330000C06AF40374307604E68012E05D0022EF1
:1003400003D0112E01D0122E0ED18668CF6826EA76
:100350000C06AF40374387604668A6430C79C4F368
:100360000014944034434460C6688C6826EA0C0646
:10037000AC403443C4604C68E40065D5364C256815
:1003800045F480452560246822F0030504F4804488
:100390000094324C2E19D6F8084895072F0F09FA09
:1003A00007F5AC432E4DA84201D1002524E02D4D88
:1003B000A84201D101251FE02B4DA84201D1022501
:1003C0001AE02A4DA84201D1032515E0284DA84284
:1003D00002D1042510E037E0264DA84201D10525C1
:1003E0000AE0254DA84201D1062505E0234DA8428B
:1003F00001D1072500E00825BD402543C6F808586F
:10040000DBF800405D464E689C43F60300D51C4374
:100410002C60DEF8004075464E689C43B60300D55C
:100420001C432C600B4D08352C684E689C43F6022B
:1004300000D51C432C60074D0C352C684E689C433E
:10044000B60200D51C432C60521C102AFFF44EAF9C
:10045000BDE8F88F003C01404438024000300140C4
:10046000000002400004024000080240000C02406C
:10047000001002400014024000180240001C02401C
:100480000AB1816170470904FBE7000001488068F8
:100490007047000020000020024881680278114463
:1004A00081607047200000200B4810B5016841F4BE
:1004B00000710160016841F480610160016841F4EC
:1004C00080710160032000F097F8002000F006F82A
:1004D00000F024F8002010BD003C024070B50D4D26
:1004E00004464FF47A712878B1FBF0F00A490968A4
:1004F000B1FBF0F000F081FB48B9102C07D20022CC
:100500002146501E00F058F800206C6070BD01209C
:1005100070BD0000200000202C0000201F4808B5FE
:10052000016841F480410160006800F4804000905F
:100530001A48001F016841F080510160006800F016
:1005400080500090032000F057F8002211466FF011
:100550000B0000F031F8002211466FF00A0000F0A5
:100560002BF8002211466FF0090000F025F8002258
:100570001146501F00F020F800221146101F00F015
:100580001BF800221146901E00F016F80022BDE86C
:1005900008401146501E00F00FB8000044380240D9
:1005A00000F01F02012191404009800000F1E0208D
:1005B000C0F8001170470000F0B40E4B1B680C46E9
:1005C000C3F30223C3F10705042D00D90425191D27
:1005D000072901D2002300E0DB1E012606FA05F1FF
:1005E000491E214099409E40761E16403143F0BC82
:1005F00000F036BE0CED00E0064900F00702086886
:100600004FF6FF03184040EA0220034A10430860F7
:10061000704700000CED00E00000FA052DE9F047FE
:100620000E46050065D0DFF81481D8F80000F7B257
:1006300000F00F00B04207D288F80070D8F8000030
:1006400000F00F00B04254D128683D4C810712D50C
:10065000400703D5206840F4E05020602878000768
:1006600003D5206840F4604020602068A96820F02D
:10067000F000084320602878C0072DD03049686812
:100680000839012812D0022813D0032811D0096894
:10069000890700292DDA216821F003010143216037
:1006A000FFF7F4FE814641F2883A0EE009688903BB
:1006B000EFE709688901ECE7FFF7E8FEA0EB090125
:1006C000514502D90320BDE8F0872068696800F031
:1006D0000C00B0EB810FEFD1D8F80010404601F0CC
:1006E0000F01B14207D90770006800F00F00B04257
:1006F00001D00120E7E72878400705D52068E968A0
:1007000020F4E050084320602878000706D52068D0
:10071000296920F4604040EAC100206000F03CF804
:100720002168084AC1F30311515CC84006490860BA
:100730000020FFF7D3FE0020C5E70000003C024088
:1007400008380240901A00082C0000200148006878
:10075000704700002C000020044805490068096823
:10076000044AC1F38221515CC84070472C0000202C
:1007700008380240A01A00080448054900680968C2
:10078000044AC1F34231515CC84070472C0000203C
:1007900008380240A01A0008154810B5006810F08B
:1007A0000C02144813D04110042A0FD0082A0ED18D
:1007B0000F4C241F2268236802F03F025B0207D51A
:1007C0002068C0F38810A0FB010106E0084610BDB8
:1007D0002168C1F38811A1FB00010023FFF7F0FCA1
:1007E0002168C1F30141491C4900B0FBF1F010BD83
:1007F000083802400024F4002DE9F84F050076D0B7
:100800002878DFF8F8B2BE4CC00749D0DBF80010FA
:100810005846C1F38101012908D00068C0F3810066
:1008200002280AD1201D0068400206D520688003F6
:1008300036D568680028E2D032E06868B0F5803FBD
:1008400010D0B0F5A02F206810D020F480302060A8
:10085000206820F4802020606868A0B1FFF716FEB1
:1008600006460CE0206840F48030F4E740F4802035
:100870002060F7E7FFF70AFE801B642873D8206822
:100880008003F7D50CE0FFF701FE064605E000BF48
:10089000FFF7FCFD801B6428F0D820688003F7D4A4
:1008A0002878DFF8608280074FF000093ED5DBF83A
:1008B0000010584611F00C0F09D00068C0F38100F9
:1008C00002280BD18D48001F0068400206D4206822
:1008D000800715D5E868012809D111E0E868B8B1AA
:1008E0000120C8F80000FFF7D1FD064605E002E14F
:1008F000FFF7CCFD801B0228C0D820688007F7D501
:100900002068296920F0F80040EAC10020600DE06D
:10091000C8F80090FFF7BAFD064604E0FFF7B6FD01
:10092000801B02281FD820688007F7D4287800078A
:1009300022D5724E744869696C3671B1012101602B
:10094000FFF7A4FD074604E0FFF7A0FDC01B022847
:1009500009D830688007F7D50EE0C0F80090FFF79F
:1009600095FD074605E083E0FFF790FDC01B0228D8
:100970007ED830688007F7D42878400768D5DFF83C
:100980007CA100270AF1380ADAF80000C0000BD475
:10099000DAF8001041F08051CAF80010DAF80000CF
:1009A000012700F080500090584E3068C00510D4E8
:1009B000306840F480703060FFF768FD009005E01B
:1009C000FFF764FD0099401A022851D83068C0052D
:1009D000F6D54A4EA868683601280FD00528306839
:1009E00010D020F001003060306820F0040030604A
:1009F000A868B8B1FFF74AFD00900FE0306840F0FA
:100A00000100F4E740F004003060F7E7FFF73EFD37
:100A10000099411A41F28830814264D830688007D9
:100A2000F4D50EE0FFF732FD009007E0FFF72EFD52
:100A30000099411A41F28830814254D830688007C9
:100A4000F4D42FB1DAF8001021F08051CAF8001068
:100A5000A869C0B3DBF80010C1F3810102294AD0B4
:100A60000228484607D0C8F86000FFF70FFD00E0F5
:100A700039E005463AE04746C8F86000FFF706FD52
:100A8000064604E0FFF702FD801B02282BD82068F1
:100A90008001F7D4D5E907010843A96A1C4A49082F
:100AA00002EB01416A6A41EA8211084395F82C1071
:100AB00040EA01611148001F016001203866FFF71C
:100AC000E5FC054605E014E0FFF7E0FC401B0228CA
:100AD00009D820688001F7D50BE000BFFFF7D6FCEE
:100AE000401B022802D90320BDE8F88F206880014E
:100AF000F4D40020F8E70120F6E7000008380240AF
:100B00000038024000004742800E4742007000401B
:100B10000000FFFF70B5040005D00025A56294F821
:100B2000510010B106E0012070BD84F850502046FD
:100B300000F030F8022084F851002068016821F0AC
:100B400040010160D4E901010843D4E903121143D3
:100B5000084361690843218B01F400710843E1698E
:100B60000843216A0843A16A084321680860A06914
:100B7000042101EA1040616A084321684860206846
:100B8000C16921F40061C1616565012084F85100EB
:100B9000002070BD00B500680E4987B0884217D1AB
:100BA0000D480021026842F480420260006800F4AF
:100BB000804005904FF4704000900220CDE9010183
:100BC000032003900520049069460448FFF780FB4A
:100BD00007B000BD00380040403802400004024029
:100BE0004FF0E0210428086903D020F004000861D8
:100BF000704740F00400FAE7704710B5401EB0F1AE
:100C0000807F01D3012010BD4FF0E02460610F21EF
:100C1000601700F025FB0020A06107202061002064
:100C200010BD10B5FFF7E8FF10BD10B590F83820E3
:100C3000012A25D0012280F83820CA688C6822F465
:100C4000407222434C6822F4806222430C6822F4F2
:100C5000006222430C6922F4805222434C6922F440
:100C6000005222438C6922F48042224322F4004144
:100C7000026800232143516480F83830002010BD01
:100C8000022010BD30B590F83820012A20D0012272
:100C900080F83820022380F8393003685C6824F03B
:100CA00070045C6003685C680D682C435C600368DA
:100CB0009C6824F080049C6003689C6849680C432D
:100CC0009C6080F83920002180F83810084630BD3B
:100CD000022030BD0168CA6842F00102CA600068A3
:100CE000016841F0010101600020704770B50068A3
:100CF0000E4986B0884216D180200090022500243B
:100D0000CDE901540126CDE9034669460848FFF7BD
:100D1000DFFA28020090CDE90154CDE90346694687
:100D20000448FFF7D5FA06B070BD0000000001408E
:100D3000000002400010024070B5044690F83800F0
:100D40000D4601280DD0012684F83860022084F871
:100D5000390042B1042A18D0082A2AD00C2A4DD1D1
:100D600039E0022070BD206800F07AFB20688169BC
:100D700041F0080181612068816921F004018161ED
:100D8000206881692A69114311E0206800F094FB12
:100D90002068816941F4006181612068816921F4E2
:100DA00080618161206881692A6941EA022181614B
:100DB00024E0206800F0B2FB2068C16941F008011E
:100DC000C1612068C16921F00401C1612068C16965
:100DD0002A69114311E0206800F0D0FB2068C16946
:100DE00041F40061C1612068C16921F48061C16181
:100DF0002068C1692A6941EA0221C16184F8396029
:100E0000002084F8380070BD10B5040003D094F8B9
:100E1000390010B107E0012010BD002084F838002F
:100E2000204600F00DF8022084F83900211D2068CA
:100E300000F0AAFA012084F83900002010BD00005B
:100E400008B500680649884208D10648016841F0A3
:100E500001010160006800F00100009008BD000081
:100E6000000001404438024010B5044600680122E9
:100E700000F0EAFA08492068884202D0074988420F
:100E800003D1416C41F4004141642068016841F0A4
:100E900001010160002010BD00000140000401407C
:100EA0007047000070B5026804461068D168536945
:100EB00010F00F0F51D003F0010501F49076354387
:100EC0005DD0C20705D0CA0503D5E26B42F001022E
:100ED000E263420705D5DA0703D0E26B42F0020273
:100EE000E263820705D5DA0703D0E26B42F0040221
:100EF000E263020705D5DA0703D0E26B42F008028D
:100F0000E263E26B002A34D0800604D5880602D55D
:100F1000204600F071FB20684069E16BC0F380104F
:100F200001F008010143204624D000F057FB20685F
:100F3000416949061AD5416921F040014161606B60
:100F4000A0B11B490165606BFFF79EF9002810D026
:100F5000606B016DBDE87040084783060FD58B06B6
:100F60000DD52046BDE8704000F046BB2046FFF797
:100F700097FF70BDFFF794FF0020E06370BD03068C
:100F800006D50B0604D52046BDE8704000F0D0BC65
:100F90004006F3D54806F1D5D168204621F040013E
:100FA000D160202184F8391000F065F870BD000090
:100FB000CD15000870B5040004D094F83900002560
:100FC00010B106E0012070BD84F83850204600F0D2
:100FD00023F8242084F839002068C16821F40051E6
:100FE000C160204600F04EFB2068016921F4904169
:100FF00001612068416921F02A0141612068C168CE
:1010000041F40051C160E563202084F8390084F880
:101010003A00002070BD000000B50068124987B09A
:1010200088421FD11148016841F010010160006839
:10103000694600F0100005904FF4C0600090022057
:10104000019001200290032003900720049008489B
:10105000FFF73EF9002211462520FFF7ADFA2520C3
:10106000FFF79EFA07B000BD00100140443802406F
:101070000000024070477047FEE7000070B51F484F
:1010800086B00024016841F020010160016801F090
:1010900020010591016841F080010160016801F0C3
:1010A00080010591016841F001010160016801F0D2
:1010B00001010591016841F010010160016801F032
:1010C00010010591016841F00201016000680C4EB9
:1010D00000F002004FF4C06505900022294630461A
:1010E000FFF7CEF901200095CDE9010469463046AD
:1010F0000394FFF7EDF806B070BD000030380240F1
:1011000000140240114810B50F4901604FF482717C
:10111000416000214FF40062C0E90212D201016176
:10112000C0E90512C1610162416281620A21C162A6
:10113000FFF7F0FC002805D0BDE81040452104A0D1
:1011400000F02FBC10BD000000380040300000202F
:101150002E2E2F5372632F7370692E6300000000D0
:1011600010B5264890B02449016006210024C0E94A
:10117000011442F21071C0E903144461FFF744FE08
:1011800018B140211EA000F00CFC0E940EA91B48C3
:101190000F94FFF777FD18B1472119A000F001FC6B
:1011A0006020009041F28830CDE90104039404945A
:1011B00005940022694611480694FFF7BDFD18B159
:1011C00053210FA000F0EDFB0794089409944FF40D
:1011D00000500A94CDE90B4007A908480D94FFF789
:1011E00024FD18B15F2106A000F0DBFB0348FFF7E8
:1011F0007DFD10B010BD00000000014088000020FF
:101200002E2E2F5372632F74696D2E630000000021
:101210000D4810B50B4901604FF4E13141600021E8
:1012200081600C22C160C0E904128161C161FFF7D5
:10123000C1FE002805D0BDE81040422103A000F007
:10124000B0BB10BD00100140C40000202E2E2F5353
:1012500072632F75736172742E630000FEE770472E
:101260000907090E002806DA00F00F0000F1E0205F
:1012700080F8141D704700F1E02080F800147047DA
:101280007047704710B5FFF707F9BDE81040FFF74A
:10129000C8BC000030B5254893B00025016841F076
:1012A00080510160006800F0805011902048016872
:1012B00041F4804101600068022400F480401190F4
:1012C0000120039010200490009406940820CDE99A
:1012D0000750A820CDE9090404200B906846FFF7C9
:1012E0008BFA00B1FEE70CA90F2081E831004FF422
:1012F000A0500F904FF48050109005210CA8FFF7DC
:101300008DF900B1FEE7FFF721FA4FF47A71B0FBD7
:10131000F1F0FFF772FC0420FFF762FC0022114697
:10132000501EFFF749F913B030BD000040380240AD
:10133000007000401048016841F4700101600F48DE
:10134000016841F0010101600C4A0021083211607E
:1013500002680B4B1A400260031D0A4A1A600268B9
:1013600022F48022026005480C30016002495806D0
:10137000803908607047000088ED00E000380240C6
:10138000FFFFF6FE10300024F0B50268234B244D19
:10139000244E254F254C4FF0804C984209D0604593
:1013A00007D0A84205D0B04203D0B84201D0A04235
:1013B00004D122F0700E4A6842EA0E0298421BD015
:1013C000604519D0A84217D0B04215D0B84213D00A
:1013D000A04211D0164DA8420ED0164DA8420BD0F7
:1013E000154DA84208D0154DA84205D0144DA8426D
:1013F00002D0144DA84203D122F44075CA682A4392
:1014000002608A68C2620A688262984201D0A04281
:1014100001D10969016301214161F0BD0000014072
:101420000004004000080040000C0040000401409F
:1014300000400140004401400048014000180040C5
:10144000001C00400020004010B50123046A8B40BE
:101450009C430462036A8A401343036210BD000088
:1014600030B5026A22F001020262026A43688469AE
:101470000D6824F07304254322F002048A68224395
:101480000B4CA04202D00B4CA0420BD122F008041E
:10149000CA6823F4407322434C6922F004021C43BF
:1014A0008B6923434360856149684163026230BDB3
:1014B000000001400004014030B5026A22F0100231
:1014C0000262026A436884690D6824F4E64444EACF
:1014D00005248D6822F0200242EA05120D4DA84233
:1014E00002D00D4DA8420ED1CD6822F0800242EA12
:1014F00005124D6923F4406343EA85038D6922F0A8
:10150000400243EA85034360846149688163026263
:1015100030BD0000000001400004014030B5026A07
:1015200022F480720262036A4268C46923F4007381
:1015300024F073050C682C438D6843EA05230D4D98
:10154000A84202D00C4DA8420ED1CD6823F400630E
:1015500043EA05234D6922F4405242EA05128D699F
:1015600023F4806342EA05124260C4614968C163A2
:10157000036230BD000001400004014030B5026A42
:1015800022F480520262046A4268C3690D6823F43F
:10159000E64343EA05238D6824F4005444EA053405
:1015A000084DA84202D0084DA84204D14D6922F44A
:1015B000804242EA85124260C36149680164046264
:1015C00030BD0000000001400004014010B5806BF8
:1015D0000021C185C184FFF763FC10BD0168CA68A2
:1015E00022F49072CA6001684A6922F001024A61DD
:1015F000202180F83A10704710B590F83A1022294F
:1016000001D0022010BD8168B1F5805F11D0016961
:10161000002901681FD0496801F07F03816A4A1CD4
:1016200082620B70C18D491E0904090CC18518D056
:1016300026E00269816A002A0268526805D0D2B2A7
:101640000A80816A491C8162ECE7C2F308020A80C1
:10165000816A891CF7E74A68816A4B1C83620A70B9
:10166000E0E70168CA6822F49072CA6001684A69BA
:1016700022F001024A61202180F83A10FFF7FAFCBB
:10168000002010BD2DE9F04104460068016921F4F5
:101690004052E168114301612168C86849F20C6257
:1016A00090432369A268E5691A4363692B431A438F
:1016B0000243CA602168486920F44072A06910435F
:1016C0004861E1696425B1F5004F9748974A216860
:1016D0004FF032083FD0914201D081427CD1FFF7D8
:1016E0004BF800EBC00101EB001061688900B0FB12
:1016F000F1F6FFF741F800EBC00101EB0010616863
:101700008900B0FBF1F0B0FBF5F06FF01801484331
:1017100006EB800108EB0110B0FBF5F000F0F006DD
:10172000FFF72AF800EBC00101EB001061688900A7
:10173000B0FBF1F0B0FBF5F006EB0016FFF71CF87C
:1017400000EBC00101EB001061688900B0FBF1F70C
:10175000FFF712F8D2E0914201D081423DD1FFF76C
:101760000BF800EBC00101EB001061684900B0FB11
:10177000F1F0B0FBF5F00601FEF7FEFF00EBC00153
:1017800001EB001061684900B0FBF1F7FEF7F4FFD0
:1017900000EBC00101EB001061684900B0FBF1F003
:1017A000B0FBF5F06FF01801484307EB800108EB40
:1017B000C100B0FBF5F000F0F80006EB4006FEF7C4
:1017C000DBFF00EBC00101EB001061684900B0FBDA
:1017D000F1F7FEF7D1FF3CE055E0FEF7BDFF00EB6F
:1017E000C00101EB001061684900B0FBF1F0B0FBF3
:1017F000F5F00601FEF7B0FF00EBC00101EB0010B1
:1018000061684900B0FBF1F7FEF7A6FF00EBC001ED
:1018100001EB001061684900B0FBF1F0B0FBF5F09E
:101820006FF01801484307EB800108EBC100B0FBE3
:10183000F5F000F0F80006EB4006FEF78DFF00EB38
:10184000C00101EB001061684900B0FBF1F7FEF741
:1018500083FF00EBC00101EB001061684900B0FBA1
:10186000F1F0B0FBF5F06FF01801484307EB800191
:1018700008EBC100B0FBF5F000F007002168304430
:101880008860BDE8F081FEF767FF00EBC00101EB67
:10189000001061688900B0FBF1F6FEF75DFF00EB18
:1018A000C00101EB001061688900B0FBF1F0B0FBF2
:1018B000F5F06FF01801484306EB800108EB0110CA
:1018C000B0FBF5F000F0F006FEF746FF00EBC001BC
:1018D00001EB001061688900B0FBF1F0B0FBF5F09E
:1018E00006EB0016FEF738FF00EBC00101EB00101D
:1018F00061688900B0FBF1F7FEF72EFF00EBC00135
:1019000001EB001061688900B0FBF1F0B0FBF5F06D
:101910006FF01801484307EB800108EB0110B0FBA2
:10192000F5F000F00F00A9E700140140001001409D
:1019300090F83910212901D0022070478168B1F553
:10194000805F016A0BD04A1C02620268097851600C
:10195000C18C491E0904090CC1840ED017E0098806
:101960000268C1F30801516001690029016A02D0CF
:10197000491C0162ECE7891CFBE70168CA6822F098
:101980008002CA600068C16841F04001C160002067
:10199000704700000148FFF785BA0000C40000202E
:1019A000FEE7FEE702E008C8121F08C1002AFAD1CC
:1019B00070477047002001E001C1121F002AFBD1CF
:1019C00070470000FEF770FDFFF764FCFFF756FB61
:1019D000FFF798FBFFF71CFCFFF7C2FB0448FFF77B
:1019E00079F900210248FFF73FFA00F003F8FEE71B
:1019F000880000202DE9F041214C0020F2EE040A7D
:101A0000207094ED010A1F4D1F4E20EE200A1F4F3B
:101A1000BCEEC00A10EE100A206194ED020A20EE1E
:101A2000200ABCEEC00A84ED050A94ED030A20EEFC
:101A3000200ABCEEC00A84ED060A60806088B5FB0F
:101A4000F0F0E061F0623968400848630F48FFF742
:101A500041F900210D48FFF707FA3220FEF726FC76
:101A60006088218B084480B260806169884203D914
:101A700002202070BDE8F08120780228DED1F9E74D
:101A80000000002080A90300000001408800002021
:101A9000000000000000000001020304060708091E
:101AA0000000000001020304C81A00080000002022
:101AB00030000000A4190008F81A000830000020C7
:101AC000D8040000B41900080000000033332D4290
:101AD0003333C142CDCCCC3E0000000000000000FA
:101AE00000000000000000000100000010000000E5
:081AF000000000000024F400D6
:040000050800018965
:00000001FF
